{
	"CURD.sol": {
		"CURD": {
			"abi": [
				{
					"inputs": [],
					"name": "add",
					"outputs": [],
					"stateMutability": "nonpayable",
					"type": "function"
				},
				{
					"inputs": [],
					"name": "get",
					"outputs": [
						{
							"internalType": "uint256",
							"name": "",
							"type": "uint256"
						}
					],
					"stateMutability": "view",
					"type": "function"
				},
				{
					"inputs": [
						{
							"internalType": "uint256",
							"name": "x",
							"type": "uint256"
						}
					],
					"name": "set",
					"outputs": [],
					"stateMutability": "nonpayable",
					"type": "function"
				},
				{
					"inputs": [],
					"name": "withdraw",
					"outputs": [],
					"stateMutability": "nonpayable",
					"type": "function"
				}
			],
			"devdoc": {
				"kind": "dev",
				"methods": {},
				"version": 1
			},
			"evm": {
				"assembly": "    /* \"CURD.sol\":79:455  contract CURD {... */\n  mstore(0x40, 0x80)\n    /* \"CURD.sol\":156:157  0 */\n  0x00\n    /* \"CURD.sol\":141:157  uint256 coin = 0 */\n  dup1\n  sstore\n    /* \"CURD.sol\":79:455  contract CURD {... */\n  callvalue\n  dup1\n  iszero\n  tag_1\n  jumpi\n  0x00\n  dup1\n  revert\ntag_1:\n  pop\n  dataSize(sub_0)\n  dup1\n  dataOffset(sub_0)\n  0x00\n  codecopy\n  0x00\n  return\nstop\n\nsub_0: assembly {\n        /* \"CURD.sol\":79:455  contract CURD {... */\n      mstore(0x40, 0x80)\n      callvalue\n      dup1\n      iszero\n      tag_1\n      jumpi\n      0x00\n      dup1\n      revert\n    tag_1:\n      pop\n      jumpi(tag_2, lt(calldatasize, 0x04))\n      shr(0xe0, calldataload(0x00))\n      dup1\n      0x3ccfd60b\n      eq\n      tag_3\n      jumpi\n      dup1\n      0x4f2be91f\n      eq\n      tag_4\n      jumpi\n      dup1\n      0x60fe47b1\n      eq\n      tag_5\n      jumpi\n      dup1\n      0x6d4ce63c\n      eq\n      tag_6\n      jumpi\n    tag_2:\n      0x00\n      dup1\n      revert\n        /* \"CURD.sol\":399:452  function withdraw() public {... */\n    tag_3:\n      tag_7\n      tag_8\n      jump\t// in\n    tag_7:\n      stop\n        /* \"CURD.sol\":178:226  function add() public {... */\n    tag_4:\n      tag_9\n      tag_10\n      jump\t// in\n    tag_9:\n      stop\n        /* \"CURD.sol\":337:393  function set(uint256 x) public {... */\n    tag_5:\n      tag_11\n      0x04\n      dup1\n      calldatasize\n      sub\n      dup2\n      add\n      swap1\n      tag_12\n      swap2\n      swap1\n      tag_13\n      jump\t// in\n    tag_12:\n      tag_14\n      jump\t// in\n    tag_11:\n      stop\n        /* \"CURD.sol\":244:317  function get() view public returns (uint256) {... */\n    tag_6:\n      tag_15\n      tag_16\n      jump\t// in\n    tag_15:\n      mload(0x40)\n      tag_17\n      swap2\n      swap1\n      tag_18\n      jump\t// in\n    tag_17:\n      mload(0x40)\n      dup1\n      swap2\n      sub\n      swap1\n      return\n        /* \"CURD.sol\":399:452  function withdraw() public {... */\n    tag_8:\n        /* \"CURD.sol\":444:445  1 */\n      0x01\n        /* \"CURD.sol\":436:440  coin */\n      0x00\n      dup1\n        /* \"CURD.sol\":436:445  coin -= 1 */\n      dup3\n      dup3\n      sload\n      tag_20\n      swap2\n      swap1\n      tag_21\n      jump\t// in\n    tag_20:\n      swap3\n      pop\n      pop\n      dup2\n      swap1\n      sstore\n      pop\n        /* \"CURD.sol\":399:452  function withdraw() public {... */\n      jump\t// out\n        /* \"CURD.sol\":178:226  function add() public {... */\n    tag_10:\n        /* \"CURD.sol\":218:219  1 */\n      0x01\n        /* \"CURD.sol\":210:214  coin */\n      0x00\n      dup1\n        /* \"CURD.sol\":210:219  coin += 1 */\n      dup3\n      dup3\n      sload\n      tag_23\n      swap2\n      swap1\n      tag_24\n      jump\t// in\n    tag_23:\n      swap3\n      pop\n      pop\n      dup2\n      swap1\n      sstore\n      pop\n        /* \"CURD.sol\":178:226  function add() public {... */\n      jump\t// out\n        /* \"CURD.sol\":337:393  function set(uint256 x) public {... */\n    tag_14:\n        /* \"CURD.sol\":385:386  x */\n      dup1\n        /* \"CURD.sol\":378:382  coin */\n      0x00\n        /* \"CURD.sol\":378:386  coin = x */\n      dup2\n      swap1\n      sstore\n      pop\n        /* \"CURD.sol\":337:393  function set(uint256 x) public {... */\n      pop\n      jump\t// out\n        /* \"CURD.sol\":244:317  function get() view public returns (uint256) {... */\n    tag_16:\n        /* \"CURD.sol\":280:287  uint256 */\n      0x00\n        /* \"CURD.sol\":306:310  coin */\n      dup1\n      sload\n        /* \"CURD.sol\":299:310  return coin */\n      swap1\n      pop\n        /* \"CURD.sol\":244:317  function get() view public returns (uint256) {... */\n      swap1\n      jump\t// out\n        /* \"#utility.yul\":88:205   */\n    tag_28:\n        /* \"#utility.yul\":197:198   */\n      0x00\n        /* \"#utility.yul\":194:195   */\n      dup1\n        /* \"#utility.yul\":187:199   */\n      revert\n        /* \"#utility.yul\":334:411   */\n    tag_30:\n        /* \"#utility.yul\":371:378   */\n      0x00\n        /* \"#utility.yul\":400:405   */\n      dup2\n        /* \"#utility.yul\":389:405   */\n      swap1\n      pop\n        /* \"#utility.yul\":334:411   */\n      swap2\n      swap1\n      pop\n      jump\t// out\n        /* \"#utility.yul\":417:539   */\n    tag_31:\n        /* \"#utility.yul\":490:514   */\n      tag_41\n        /* \"#utility.yul\":508:513   */\n      dup2\n        /* \"#utility.yul\":490:514   */\n      tag_30\n      jump\t// in\n    tag_41:\n        /* \"#utility.yul\":483:488   */\n      dup2\n        /* \"#utility.yul\":480:515   */\n      eq\n        /* \"#utility.yul\":470:533   */\n      tag_42\n      jumpi\n        /* \"#utility.yul\":529:530   */\n      0x00\n        /* \"#utility.yul\":526:527   */\n      dup1\n        /* \"#utility.yul\":519:531   */\n      revert\n        /* \"#utility.yul\":470:533   */\n    tag_42:\n        /* \"#utility.yul\":417:539   */\n      pop\n      jump\t// out\n        /* \"#utility.yul\":545:684   */\n    tag_32:\n        /* \"#utility.yul\":591:596   */\n      0x00\n        /* \"#utility.yul\":629:635   */\n      dup2\n        /* \"#utility.yul\":616:636   */\n      calldataload\n        /* \"#utility.yul\":607:636   */\n      swap1\n      pop\n        /* \"#utility.yul\":645:678   */\n      tag_44\n        /* \"#utility.yul\":672:677   */\n      dup2\n        /* \"#utility.yul\":645:678   */\n      tag_31\n      jump\t// in\n    tag_44:\n        /* \"#utility.yul\":545:684   */\n      swap3\n      swap2\n      pop\n      pop\n      jump\t// out\n        /* \"#utility.yul\":690:1019   */\n    tag_13:\n        /* \"#utility.yul\":749:755   */\n      0x00\n        /* \"#utility.yul\":798:800   */\n      0x20\n        /* \"#utility.yul\":786:795   */\n      dup3\n        /* \"#utility.yul\":777:784   */\n      dup5\n        /* \"#utility.yul\":773:796   */\n      sub\n        /* \"#utility.yul\":769:801   */\n      slt\n        /* \"#utility.yul\":766:885   */\n      iszero\n      tag_46\n      jumpi\n        /* \"#utility.yul\":804:883   */\n      tag_47\n      tag_28\n      jump\t// in\n    tag_47:\n        /* \"#utility.yul\":766:885   */\n    tag_46:\n        /* \"#utility.yul\":924:925   */\n      0x00\n        /* \"#utility.yul\":949:1002   */\n      tag_48\n        /* \"#utility.yul\":994:1001   */\n      dup5\n        /* \"#utility.yul\":985:991   */\n      dup3\n        /* \"#utility.yul\":974:983   */\n      dup6\n        /* \"#utility.yul\":970:992   */\n      add\n        /* \"#utility.yul\":949:1002   */\n      tag_32\n      jump\t// in\n    tag_48:\n        /* \"#utility.yul\":939:1002   */\n      swap2\n      pop\n        /* \"#utility.yul\":895:1012   */\n      pop\n        /* \"#utility.yul\":690:1019   */\n      swap3\n      swap2\n      pop\n      pop\n      jump\t// out\n        /* \"#utility.yul\":1025:1143   */\n    tag_33:\n        /* \"#utility.yul\":1112:1136   */\n      tag_50\n        /* \"#utility.yul\":1130:1135   */\n      dup2\n        /* \"#utility.yul\":1112:1136   */\n      tag_30\n      jump\t// in\n    tag_50:\n        /* \"#utility.yul\":1107:1110   */\n      dup3\n        /* \"#utility.yul\":1100:1137   */\n      mstore\n        /* \"#utility.yul\":1025:1143   */\n      pop\n      pop\n      jump\t// out\n        /* \"#utility.yul\":1149:1371   */\n    tag_18:\n        /* \"#utility.yul\":1242:1246   */\n      0x00\n        /* \"#utility.yul\":1280:1282   */\n      0x20\n        /* \"#utility.yul\":1269:1278   */\n      dup3\n        /* \"#utility.yul\":1265:1283   */\n      add\n        /* \"#utility.yul\":1257:1283   */\n      swap1\n      pop\n        /* \"#utility.yul\":1293:1364   */\n      tag_52\n        /* \"#utility.yul\":1361:1362   */\n      0x00\n        /* \"#utility.yul\":1350:1359   */\n      dup4\n        /* \"#utility.yul\":1346:1363   */\n      add\n        /* \"#utility.yul\":1337:1343   */\n      dup5\n        /* \"#utility.yul\":1293:1364   */\n      tag_33\n      jump\t// in\n    tag_52:\n        /* \"#utility.yul\":1149:1371   */\n      swap3\n      swap2\n      pop\n      pop\n      jump\t// out\n        /* \"#utility.yul\":1377:1557   */\n    tag_34:\n        /* \"#utility.yul\":1425:1502   */\n      0x4e487b7100000000000000000000000000000000000000000000000000000000\n        /* \"#utility.yul\":1422:1423   */\n      0x00\n        /* \"#utility.yul\":1415:1503   */\n      mstore\n        /* \"#utility.yul\":1522:1526   */\n      0x11\n        /* \"#utility.yul\":1519:1520   */\n      0x04\n        /* \"#utility.yul\":1512:1527   */\n      mstore\n        /* \"#utility.yul\":1546:1550   */\n      0x24\n        /* \"#utility.yul\":1543:1544   */\n      0x00\n        /* \"#utility.yul\":1536:1551   */\n      revert\n        /* \"#utility.yul\":1563:1757   */\n    tag_21:\n        /* \"#utility.yul\":1603:1607   */\n      0x00\n        /* \"#utility.yul\":1623:1643   */\n      tag_55\n        /* \"#utility.yul\":1641:1642   */\n      dup3\n        /* \"#utility.yul\":1623:1643   */\n      tag_30\n      jump\t// in\n    tag_55:\n        /* \"#utility.yul\":1618:1643   */\n      swap2\n      pop\n        /* \"#utility.yul\":1657:1677   */\n      tag_56\n        /* \"#utility.yul\":1675:1676   */\n      dup4\n        /* \"#utility.yul\":1657:1677   */\n      tag_30\n      jump\t// in\n    tag_56:\n        /* \"#utility.yul\":1652:1677   */\n      swap3\n      pop\n        /* \"#utility.yul\":1701:1702   */\n      dup3\n        /* \"#utility.yul\":1698:1699   */\n      dup3\n        /* \"#utility.yul\":1694:1703   */\n      sub\n        /* \"#utility.yul\":1686:1703   */\n      swap1\n      pop\n        /* \"#utility.yul\":1725:1726   */\n      dup2\n        /* \"#utility.yul\":1719:1723   */\n      dup2\n        /* \"#utility.yul\":1716:1727   */\n      gt\n        /* \"#utility.yul\":1713:1750   */\n      iszero\n      tag_57\n      jumpi\n        /* \"#utility.yul\":1730:1748   */\n      tag_58\n      tag_34\n      jump\t// in\n    tag_58:\n        /* \"#utility.yul\":1713:1750   */\n    tag_57:\n        /* \"#utility.yul\":1563:1757   */\n      swap3\n      swap2\n      pop\n      pop\n      jump\t// out\n        /* \"#utility.yul\":1763:1954   */\n    tag_24:\n        /* \"#utility.yul\":1803:1806   */\n      0x00\n        /* \"#utility.yul\":1822:1842   */\n      tag_60\n        /* \"#utility.yul\":1840:1841   */\n      dup3\n        /* \"#utility.yul\":1822:1842   */\n      tag_30\n      jump\t// in\n    tag_60:\n        /* \"#utility.yul\":1817:1842   */\n      swap2\n      pop\n        /* \"#utility.yul\":1856:1876   */\n      tag_61\n        /* \"#utility.yul\":1874:1875   */\n      dup4\n        /* \"#utility.yul\":1856:1876   */\n      tag_30\n      jump\t// in\n    tag_61:\n        /* \"#utility.yul\":1851:1876   */\n      swap3\n      pop\n        /* \"#utility.yul\":1899:1900   */\n      dup3\n        /* \"#utility.yul\":1896:1897   */\n      dup3\n        /* \"#utility.yul\":1892:1901   */\n      add\n        /* \"#utility.yul\":1885:1901   */\n      swap1\n      pop\n        /* \"#utility.yul\":1920:1923   */\n      dup1\n        /* \"#utility.yul\":1917:1918   */\n      dup3\n        /* \"#utility.yul\":1914:1924   */\n      gt\n        /* \"#utility.yul\":1911:1947   */\n      iszero\n      tag_62\n      jumpi\n        /* \"#utility.yul\":1927:1945   */\n      tag_63\n      tag_34\n      jump\t// in\n    tag_63:\n        /* \"#utility.yul\":1911:1947   */\n    tag_62:\n        /* \"#utility.yul\":1763:1954   */\n      swap3\n      swap2\n      pop\n      pop\n      jump\t// out\n\n    auxdata: 0xa26469706673582212209d17ef9c3c82d3b96082ca52655e429606dd6bd5eeaab9ff51a9be01320162f364736f6c634300081a0033\n}\n",
				"bytecode": {
					"linkReferences": {},
					"object": "60806040525f80553480156011575f80fd5b506102348061001f5f395ff3fe608060405234801561000f575f80fd5b506004361061004a575f3560e01c80633ccfd60b1461004e5780634f2be91f1461005857806360fe47b1146100625780636d4ce63c1461007e575b5f80fd5b61005661009c565b005b6100606100b6565b005b61007c60048036038101906100779190610118565b6100d0565b005b6100866100d9565b6040516100939190610152565b60405180910390f35b60015f808282546100ad9190610198565b92505081905550565b60015f808282546100c791906101cb565b92505081905550565b805f8190555050565b5f8054905090565b5f80fd5b5f819050919050565b6100f7816100e5565b8114610101575f80fd5b50565b5f81359050610112816100ee565b92915050565b5f6020828403121561012d5761012c6100e1565b5b5f61013a84828501610104565b91505092915050565b61014c816100e5565b82525050565b5f6020820190506101655f830184610143565b92915050565b7f4e487b71000000000000000000000000000000000000000000000000000000005f52601160045260245ffd5b5f6101a2826100e5565b91506101ad836100e5565b92508282039050818111156101c5576101c461016b565b5b92915050565b5f6101d5826100e5565b91506101e0836100e5565b92508282019050808211156101f8576101f761016b565b5b9291505056fea26469706673582212209d17ef9c3c82d3b96082ca52655e429606dd6bd5eeaab9ff51a9be01320162f364736f6c634300081a0033",
					"opcodes": "PUSH1 0x80 PUSH1 0x40 MSTORE PUSH0 DUP1 SSTORE CALLVALUE DUP1 ISZERO PUSH1 0x11 JUMPI PUSH0 DUP1 REVERT JUMPDEST POP PUSH2 0x234 DUP1 PUSH2 0x1F PUSH0 CODECOPY PUSH0 RETURN INVALID PUSH1 0x80 PUSH1 0x40 MSTORE CALLVALUE DUP1 ISZERO PUSH2 0xF JUMPI PUSH0 DUP1 REVERT JUMPDEST POP PUSH1 0x4 CALLDATASIZE LT PUSH2 0x4A JUMPI PUSH0 CALLDATALOAD PUSH1 0xE0 SHR DUP1 PUSH4 0x3CCFD60B EQ PUSH2 0x4E JUMPI DUP1 PUSH4 0x4F2BE91F EQ PUSH2 0x58 JUMPI DUP1 PUSH4 0x60FE47B1 EQ PUSH2 0x62 JUMPI DUP1 PUSH4 0x6D4CE63C EQ PUSH2 0x7E JUMPI JUMPDEST PUSH0 DUP1 REVERT JUMPDEST PUSH2 0x56 PUSH2 0x9C JUMP JUMPDEST STOP JUMPDEST PUSH2 0x60 PUSH2 0xB6 JUMP JUMPDEST STOP JUMPDEST PUSH2 0x7C PUSH1 0x4 DUP1 CALLDATASIZE SUB DUP2 ADD SWAP1 PUSH2 0x77 SWAP2 SWAP1 PUSH2 0x118 JUMP JUMPDEST PUSH2 0xD0 JUMP JUMPDEST STOP JUMPDEST PUSH2 0x86 PUSH2 0xD9 JUMP JUMPDEST PUSH1 0x40 MLOAD PUSH2 0x93 SWAP2 SWAP1 PUSH2 0x152 JUMP JUMPDEST PUSH1 0x40 MLOAD DUP1 SWAP2 SUB SWAP1 RETURN JUMPDEST PUSH1 0x1 PUSH0 DUP1 DUP3 DUP3 SLOAD PUSH2 0xAD SWAP2 SWAP1 PUSH2 0x198 JUMP JUMPDEST SWAP3 POP POP DUP2 SWAP1 SSTORE POP JUMP JUMPDEST PUSH1 0x1 PUSH0 DUP1 DUP3 DUP3 SLOAD PUSH2 0xC7 SWAP2 SWAP1 PUSH2 0x1CB JUMP JUMPDEST SWAP3 POP POP DUP2 SWAP1 SSTORE POP JUMP JUMPDEST DUP1 PUSH0 DUP2 SWAP1 SSTORE POP POP JUMP JUMPDEST PUSH0 DUP1 SLOAD SWAP1 POP SWAP1 JUMP JUMPDEST PUSH0 DUP1 REVERT JUMPDEST PUSH0 DUP2 SWAP1 POP SWAP2 SWAP1 POP JUMP JUMPDEST PUSH2 0xF7 DUP2 PUSH2 0xE5 JUMP JUMPDEST DUP2 EQ PUSH2 0x101 JUMPI PUSH0 DUP1 REVERT JUMPDEST POP JUMP JUMPDEST PUSH0 DUP2 CALLDATALOAD SWAP1 POP PUSH2 0x112 DUP2 PUSH2 0xEE JUMP JUMPDEST SWAP3 SWAP2 POP POP JUMP JUMPDEST PUSH0 PUSH1 0x20 DUP3 DUP5 SUB SLT ISZERO PUSH2 0x12D JUMPI PUSH2 0x12C PUSH2 0xE1 JUMP JUMPDEST JUMPDEST PUSH0 PUSH2 0x13A DUP5 DUP3 DUP6 ADD PUSH2 0x104 JUMP JUMPDEST SWAP2 POP POP SWAP3 SWAP2 POP POP JUMP JUMPDEST PUSH2 0x14C DUP2 PUSH2 0xE5 JUMP JUMPDEST DUP3 MSTORE POP POP JUMP JUMPDEST PUSH0 PUSH1 0x20 DUP3 ADD SWAP1 POP PUSH2 0x165 PUSH0 DUP4 ADD DUP5 PUSH2 0x143 JUMP JUMPDEST SWAP3 SWAP2 POP POP JUMP JUMPDEST PUSH32 0x4E487B7100000000000000000000000000000000000000000000000000000000 PUSH0 MSTORE PUSH1 0x11 PUSH1 0x4 MSTORE PUSH1 0x24 PUSH0 REVERT JUMPDEST PUSH0 PUSH2 0x1A2 DUP3 PUSH2 0xE5 JUMP JUMPDEST SWAP2 POP PUSH2 0x1AD DUP4 PUSH2 0xE5 JUMP JUMPDEST SWAP3 POP DUP3 DUP3 SUB SWAP1 POP DUP2 DUP2 GT ISZERO PUSH2 0x1C5 JUMPI PUSH2 0x1C4 PUSH2 0x16B JUMP JUMPDEST JUMPDEST SWAP3 SWAP2 POP POP JUMP JUMPDEST PUSH0 PUSH2 0x1D5 DUP3 PUSH2 0xE5 JUMP JUMPDEST SWAP2 POP PUSH2 0x1E0 DUP4 PUSH2 0xE5 JUMP JUMPDEST SWAP3 POP DUP3 DUP3 ADD SWAP1 POP DUP1 DUP3 GT ISZERO PUSH2 0x1F8 JUMPI PUSH2 0x1F7 PUSH2 0x16B JUMP JUMPDEST JUMPDEST SWAP3 SWAP2 POP POP JUMP INVALID LOG2 PUSH5 0x6970667358 0x22 SLT KECCAK256 SWAP14 OR 0xEF SWAP13 EXTCODECOPY DUP3 0xD3 0xB9 PUSH1 0x82 0xCA MSTORE PUSH6 0x5E429606DD6B 0xD5 0xEE 0xAA 0xB9 SELFDESTRUCT MLOAD 0xA9 0xBE ADD ORIGIN ADD PUSH3 0xF36473 PUSH16 0x6C634300081A00330000000000000000 "
				},
				"gasEstimates": {
					"creation": {
						"codeDepositCost": "112800",
						"executionCost": "5162",
						"totalCost": "117962"
					},
					"external": {
						"add()": "infinite",
						"get()": "2476",
						"set(uint256)": "22536",
						"withdraw()": "infinite"
					}
				},
				"methodIdentifiers": {
					"add()": "4f2be91f",
					"get()": "6d4ce63c",
					"set(uint256)": "60fe47b1",
					"withdraw()": "3ccfd60b"
				}
			},
			"storageLayout": {
				"storage": [
					{
						"astId": 4,
						"contract": "CURD.sol:CURD",
						"label": "coin",
						"offset": 0,
						"slot": "0",
						"type": "t_uint256"
					}
				],
				"types": {
					"t_uint256": {
						"encoding": "inplace",
						"label": "uint256",
						"numberOfBytes": "32"
					}
				}
			},
			"userdoc": {
				"kind": "user",
				"methods": {},
				"version": 1
			}
		}
	}
}