{
	"data": {
		"bytecode": {
			"linkReferences": {},
			"object": "60806040525f6001553480156012575f80fd5b50610a2d806100205f395ff3fe608060405234801561000f575f80fd5b5060043610610060575f3560e01c806306ead22e1461006457806311df99951461009457806359f6d8a3146100b2578063a7a0d537146100ce578063c9877203146100d8578063e308ae72146100f4575b5f80fd5b61007e60048036038101906100799190610355565b610110565b60405161008b91906103f0565b60405180910390f35b61009c6101aa565b6040516100a9919061041f565b60405180910390f35b6100cc60048036038101906100c79190610646565b6101b0565b005b6100d661020a565b005b6100f260048036038101906100ed9190610355565b610245565b005b61010e60048036038101906101099190610355565b6102b3565b005b5f602052805f5260405f205f91509050805461012b906106ba565b80601f0160208091040260200160405190810160405280929190818152602001828054610157906106ba565b80156101a25780601f10610179576101008083540402835291602001916101a2565b820191905f5260205f20905b81548152906001019060200180831161018557829003601f168201915b505050505081565b60015481565b5f5b8151811015610206578181815181106101ce576101cd6106ea565b5b60200260200101515f808381526020019081526020015f2090816101f291906108b4565b5080806101fe906109b0565b9150506101b2565b5050565b5f5b600a8110156102425760048103156102425760015f815480929190610230906109b0565b9190505550808060010191505061020c565b50565b5f5b818110156102af576040518060400160405280600781526020017f76616962686176000000000000000000000000000000000000000000000000008152505f808381526020019081526020015f2090816102a191906108b4565b508080600101915050610247565b5050565b5b6040518060400160405280600781526020017f76616962686176000000000000000000000000000000000000000000000000008152505f808081526020019081526020015f20908161030691906108b4565b505f81106102b45750565b5f604051905090565b5f80fd5b5f80fd5b5f819050919050565b61033481610322565b811461033e575f80fd5b50565b5f8135905061034f8161032b565b92915050565b5f6020828403121561036a5761036961031a565b5b5f61037784828501610341565b91505092915050565b5f81519050919050565b5f82825260208201905092915050565b8281835e5f83830152505050565b5f601f19601f8301169050919050565b5f6103c282610380565b6103cc818561038a565b93506103dc81856020860161039a565b6103e5816103a8565b840191505092915050565b5f6020820190508181035f83015261040881846103b8565b905092915050565b61041981610322565b82525050565b5f6020820190506104325f830184610410565b92915050565b5f80fd5b7f4e487b71000000000000000000000000000000000000000000000000000000005f52604160045260245ffd5b610472826103a8565b810181811067ffffffffffffffff821117156104915761049061043c565b5b80604052505050565b5f6104a3610311565b90506104af8282610469565b919050565b5f67ffffffffffffffff8211156104ce576104cd61043c565b5b602082029050602081019050919050565b5f80fd5b5f80fd5b5f67ffffffffffffffff8211156105015761050061043c565b5b61050a826103a8565b9050602081019050919050565b828183375f83830152505050565b5f610537610532846104e7565b61049a565b905082815260208101848484011115610553576105526104e3565b5b61055e848285610517565b509392505050565b5f82601f83011261057a57610579610438565b5b813561058a848260208601610525565b91505092915050565b5f6105a56105a0846104b4565b61049a565b905080838252602082019050602084028301858111156105c8576105c76104df565b5b835b8181101561060f57803567ffffffffffffffff8111156105ed576105ec610438565b5b8086016105fa8982610566565b855260208501945050506020810190506105ca565b5050509392505050565b5f82601f83011261062d5761062c610438565b5b813561063d848260208601610593565b91505092915050565b5f6020828403121561065b5761065a61031a565b5b5f82013567ffffffffffffffff8111156106785761067761031e565b5b61068484828501610619565b91505092915050565b7f4e487b71000000000000000000000000000000000000000000000000000000005f52602260045260245ffd5b5f60028204905060018216806106d157607f821691505b6020821081036106e4576106e361068d565b5b50919050565b7f4e487b71000000000000000000000000000000000000000000000000000000005f52603260045260245ffd5b5f819050815f5260205f209050919050565b5f6020601f8301049050919050565b5f82821b905092915050565b5f600883026107737fffffffffffffffffffffffffffffffffffffffffffffffffffffffffffffffff82610738565b61077d8683610738565b95508019841693508086168417925050509392505050565b5f819050919050565b5f6107b86107b36107ae84610322565b610795565b610322565b9050919050565b5f819050919050565b6107d18361079e565b6107e56107dd826107bf565b848454610744565b825550505050565b5f90565b6107f96107ed565b6108048184846107c8565b505050565b5b818110156108275761081c5f826107f1565b60018101905061080a565b5050565b601f82111561086c5761083d81610717565b61084684610729565b81016020851015610855578190505b61086961086185610729565b830182610809565b50505b505050565b5f82821c905092915050565b5f61088c5f1984600802610871565b1980831691505092915050565b5f6108a4838361087d565b9150826002028217905092915050565b6108bd82610380565b67ffffffffffffffff8111156108d6576108d561043c565b5b6108e082546106ba565b6108eb82828561082b565b5f60209050601f83116001811461091c575f841561090a578287015190505b6109148582610899565b86555061097b565b601f19841661092a86610717565b5f5b828110156109515784890151825560018201915060208501945060208101905061092c565b8683101561096e578489015161096a601f89168261087d565b8355505b6001600288020188555050505b505050505050565b7f4e487b71000000000000000000000000000000000000000000000000000000005f52601160045260245ffd5b5f6109ba82610322565b91507fffffffffffffffffffffffffffffffffffffffffffffffffffffffffffffffff82036109ec576109eb610983565b5b60018201905091905056fea2646970667358221220b7ddd6c9bead596804d4579ce9fa5bcfb3f006d1578d09944117b0691344574664736f6c634300081a0033",
			"opcodes": "PUSH1 0x80 PUSH1 0x40 MSTORE PUSH0 PUSH1 0x1 SSTORE CALLVALUE DUP1 ISZERO PUSH1 0x12 JUMPI PUSH0 DUP1 REVERT JUMPDEST POP PUSH2 0xA2D DUP1 PUSH2 0x20 PUSH0 CODECOPY PUSH0 RETURN INVALID PUSH1 0x80 PUSH1 0x40 MSTORE CALLVALUE DUP1 ISZERO PUSH2 0xF JUMPI PUSH0 DUP1 REVERT JUMPDEST POP PUSH1 0x4 CALLDATASIZE LT PUSH2 0x60 JUMPI PUSH0 CALLDATALOAD PUSH1 0xE0 SHR DUP1 PUSH4 0x6EAD22E EQ PUSH2 0x64 JUMPI DUP1 PUSH4 0x11DF9995 EQ PUSH2 0x94 JUMPI DUP1 PUSH4 0x59F6D8A3 EQ PUSH2 0xB2 JUMPI DUP1 PUSH4 0xA7A0D537 EQ PUSH2 0xCE JUMPI DUP1 PUSH4 0xC9877203 EQ PUSH2 0xD8 JUMPI DUP1 PUSH4 0xE308AE72 EQ PUSH2 0xF4 JUMPI JUMPDEST PUSH0 DUP1 REVERT JUMPDEST PUSH2 0x7E PUSH1 0x4 DUP1 CALLDATASIZE SUB DUP2 ADD SWAP1 PUSH2 0x79 SWAP2 SWAP1 PUSH2 0x355 JUMP JUMPDEST PUSH2 0x110 JUMP JUMPDEST PUSH1 0x40 MLOAD PUSH2 0x8B SWAP2 SWAP1 PUSH2 0x3F0 JUMP JUMPDEST PUSH1 0x40 MLOAD DUP1 SWAP2 SUB SWAP1 RETURN JUMPDEST PUSH2 0x9C PUSH2 0x1AA JUMP JUMPDEST PUSH1 0x40 MLOAD PUSH2 0xA9 SWAP2 SWAP1 PUSH2 0x41F JUMP JUMPDEST PUSH1 0x40 MLOAD DUP1 SWAP2 SUB SWAP1 RETURN JUMPDEST PUSH2 0xCC PUSH1 0x4 DUP1 CALLDATASIZE SUB DUP2 ADD SWAP1 PUSH2 0xC7 SWAP2 SWAP1 PUSH2 0x646 JUMP JUMPDEST PUSH2 0x1B0 JUMP JUMPDEST STOP JUMPDEST PUSH2 0xD6 PUSH2 0x20A JUMP JUMPDEST STOP JUMPDEST PUSH2 0xF2 PUSH1 0x4 DUP1 CALLDATASIZE SUB DUP2 ADD SWAP1 PUSH2 0xED SWAP2 SWAP1 PUSH2 0x355 JUMP JUMPDEST PUSH2 0x245 JUMP JUMPDEST STOP JUMPDEST PUSH2 0x10E PUSH1 0x4 DUP1 CALLDATASIZE SUB DUP2 ADD SWAP1 PUSH2 0x109 SWAP2 SWAP1 PUSH2 0x355 JUMP JUMPDEST PUSH2 0x2B3 JUMP JUMPDEST STOP JUMPDEST PUSH0 PUSH1 0x20 MSTORE DUP1 PUSH0 MSTORE PUSH1 0x40 PUSH0 KECCAK256 PUSH0 SWAP2 POP SWAP1 POP DUP1 SLOAD PUSH2 0x12B SWAP1 PUSH2 0x6BA JUMP JUMPDEST DUP1 PUSH1 0x1F ADD PUSH1 0x20 DUP1 SWAP2 DIV MUL PUSH1 0x20 ADD PUSH1 0x40 MLOAD SWAP1 DUP2 ADD PUSH1 0x40 MSTORE DUP1 SWAP3 SWAP2 SWAP1 DUP2 DUP2 MSTORE PUSH1 0x20 ADD DUP3 DUP1 SLOAD PUSH2 0x157 SWAP1 PUSH2 0x6BA JUMP JUMPDEST DUP1 ISZERO PUSH2 0x1A2 JUMPI DUP1 PUSH1 0x1F LT PUSH2 0x179 JUMPI PUSH2 0x100 DUP1 DUP4 SLOAD DIV MUL DUP4 MSTORE SWAP2 PUSH1 0x20 ADD SWAP2 PUSH2 0x1A2 JUMP JUMPDEST DUP3 ADD SWAP2 SWAP1 PUSH0 MSTORE PUSH1 0x20 PUSH0 KECCAK256 SWAP1 JUMPDEST DUP2 SLOAD DUP2 MSTORE SWAP1 PUSH1 0x1 ADD SWAP1 PUSH1 0x20 ADD DUP1 DUP4 GT PUSH2 0x185 JUMPI DUP3 SWAP1 SUB PUSH1 0x1F AND DUP3 ADD SWAP2 JUMPDEST POP POP POP POP POP DUP2 JUMP JUMPDEST PUSH1 0x1 SLOAD DUP2 JUMP JUMPDEST PUSH0 JUMPDEST DUP2 MLOAD DUP2 LT ISZERO PUSH2 0x206 JUMPI DUP2 DUP2 DUP2 MLOAD DUP2 LT PUSH2 0x1CE JUMPI PUSH2 0x1CD PUSH2 0x6EA JUMP JUMPDEST JUMPDEST PUSH1 0x20 MUL PUSH1 0x20 ADD ADD MLOAD PUSH0 DUP1 DUP4 DUP2 MSTORE PUSH1 0x20 ADD SWAP1 DUP2 MSTORE PUSH1 0x20 ADD PUSH0 KECCAK256 SWAP1 DUP2 PUSH2 0x1F2 SWAP2 SWAP1 PUSH2 0x8B4 JUMP JUMPDEST POP DUP1 DUP1 PUSH2 0x1FE SWAP1 PUSH2 0x9B0 JUMP JUMPDEST SWAP2 POP POP PUSH2 0x1B2 JUMP JUMPDEST POP POP JUMP JUMPDEST PUSH0 JUMPDEST PUSH1 0xA DUP2 LT ISZERO PUSH2 0x242 JUMPI PUSH1 0x4 DUP2 SUB ISZERO PUSH2 0x242 JUMPI PUSH1 0x1 PUSH0 DUP2 SLOAD DUP1 SWAP3 SWAP2 SWAP1 PUSH2 0x230 SWAP1 PUSH2 0x9B0 JUMP JUMPDEST SWAP2 SWAP1 POP SSTORE POP DUP1 DUP1 PUSH1 0x1 ADD SWAP2 POP POP PUSH2 0x20C JUMP JUMPDEST POP JUMP JUMPDEST PUSH0 JUMPDEST DUP2 DUP2 LT ISZERO PUSH2 0x2AF JUMPI PUSH1 0x40 MLOAD DUP1 PUSH1 0x40 ADD PUSH1 0x40 MSTORE DUP1 PUSH1 0x7 DUP2 MSTORE PUSH1 0x20 ADD PUSH32 0x7661696268617600000000000000000000000000000000000000000000000000 DUP2 MSTORE POP PUSH0 DUP1 DUP4 DUP2 MSTORE PUSH1 0x20 ADD SWAP1 DUP2 MSTORE PUSH1 0x20 ADD PUSH0 KECCAK256 SWAP1 DUP2 PUSH2 0x2A1 SWAP2 SWAP1 PUSH2 0x8B4 JUMP JUMPDEST POP DUP1 DUP1 PUSH1 0x1 ADD SWAP2 POP POP PUSH2 0x247 JUMP JUMPDEST POP POP JUMP JUMPDEST JUMPDEST PUSH1 0x40 MLOAD DUP1 PUSH1 0x40 ADD PUSH1 0x40 MSTORE DUP1 PUSH1 0x7 DUP2 MSTORE PUSH1 0x20 ADD PUSH32 0x7661696268617600000000000000000000000000000000000000000000000000 DUP2 MSTORE POP PUSH0 DUP1 DUP1 DUP2 MSTORE PUSH1 0x20 ADD SWAP1 DUP2 MSTORE PUSH1 0x20 ADD PUSH0 KECCAK256 SWAP1 DUP2 PUSH2 0x306 SWAP2 SWAP1 PUSH2 0x8B4 JUMP JUMPDEST POP PUSH0 DUP2 LT PUSH2 0x2B4 JUMPI POP JUMP JUMPDEST PUSH0 PUSH1 0x40 MLOAD SWAP1 POP SWAP1 JUMP JUMPDEST PUSH0 DUP1 REVERT JUMPDEST PUSH0 DUP1 REVERT JUMPDEST PUSH0 DUP2 SWAP1 POP SWAP2 SWAP1 POP JUMP JUMPDEST PUSH2 0x334 DUP2 PUSH2 0x322 JUMP JUMPDEST DUP2 EQ PUSH2 0x33E JUMPI PUSH0 DUP1 REVERT JUMPDEST POP JUMP JUMPDEST PUSH0 DUP2 CALLDATALOAD SWAP1 POP PUSH2 0x34F DUP2 PUSH2 0x32B JUMP JUMPDEST SWAP3 SWAP2 POP POP JUMP JUMPDEST PUSH0 PUSH1 0x20 DUP3 DUP5 SUB SLT ISZERO PUSH2 0x36A JUMPI PUSH2 0x369 PUSH2 0x31A JUMP JUMPDEST JUMPDEST PUSH0 PUSH2 0x377 DUP5 DUP3 DUP6 ADD PUSH2 0x341 JUMP JUMPDEST SWAP2 POP POP SWAP3 SWAP2 POP POP JUMP JUMPDEST PUSH0 DUP2 MLOAD SWAP1 POP SWAP2 SWAP1 POP JUMP JUMPDEST PUSH0 DUP3 DUP3 MSTORE PUSH1 0x20 DUP3 ADD SWAP1 POP SWAP3 SWAP2 POP POP JUMP JUMPDEST DUP3 DUP2 DUP4 MCOPY PUSH0 DUP4 DUP4 ADD MSTORE POP POP POP JUMP JUMPDEST PUSH0 PUSH1 0x1F NOT PUSH1 0x1F DUP4 ADD AND SWAP1 POP SWAP2 SWAP1 POP JUMP JUMPDEST PUSH0 PUSH2 0x3C2 DUP3 PUSH2 0x380 JUMP JUMPDEST PUSH2 0x3CC DUP2 DUP6 PUSH2 0x38A JUMP JUMPDEST SWAP4 POP PUSH2 0x3DC DUP2 DUP6 PUSH1 0x20 DUP7 ADD PUSH2 0x39A JUMP JUMPDEST PUSH2 0x3E5 DUP2 PUSH2 0x3A8 JUMP JUMPDEST DUP5 ADD SWAP2 POP POP SWAP3 SWAP2 POP POP JUMP JUMPDEST PUSH0 PUSH1 0x20 DUP3 ADD SWAP1 POP DUP2 DUP2 SUB PUSH0 DUP4 ADD MSTORE PUSH2 0x408 DUP2 DUP5 PUSH2 0x3B8 JUMP JUMPDEST SWAP1 POP SWAP3 SWAP2 POP POP JUMP JUMPDEST PUSH2 0x419 DUP2 PUSH2 0x322 JUMP JUMPDEST DUP3 MSTORE POP POP JUMP JUMPDEST PUSH0 PUSH1 0x20 DUP3 ADD SWAP1 POP PUSH2 0x432 PUSH0 DUP4 ADD DUP5 PUSH2 0x410 JUMP JUMPDEST SWAP3 SWAP2 POP POP JUMP JUMPDEST PUSH0 DUP1 REVERT JUMPDEST PUSH32 0x4E487B7100000000000000000000000000000000000000000000000000000000 PUSH0 MSTORE PUSH1 0x41 PUSH1 0x4 MSTORE PUSH1 0x24 PUSH0 REVERT JUMPDEST PUSH2 0x472 DUP3 PUSH2 0x3A8 JUMP JUMPDEST DUP2 ADD DUP2 DUP2 LT PUSH8 0xFFFFFFFFFFFFFFFF DUP3 GT OR ISZERO PUSH2 0x491 JUMPI PUSH2 0x490 PUSH2 0x43C JUMP JUMPDEST JUMPDEST DUP1 PUSH1 0x40 MSTORE POP POP POP JUMP JUMPDEST PUSH0 PUSH2 0x4A3 PUSH2 0x311 JUMP JUMPDEST SWAP1 POP PUSH2 0x4AF DUP3 DUP3 PUSH2 0x469 JUMP JUMPDEST SWAP2 SWAP1 POP JUMP JUMPDEST PUSH0 PUSH8 0xFFFFFFFFFFFFFFFF DUP3 GT ISZERO PUSH2 0x4CE JUMPI PUSH2 0x4CD PUSH2 0x43C JUMP JUMPDEST JUMPDEST PUSH1 0x20 DUP3 MUL SWAP1 POP PUSH1 0x20 DUP2 ADD SWAP1 POP SWAP2 SWAP1 POP JUMP JUMPDEST PUSH0 DUP1 REVERT JUMPDEST PUSH0 DUP1 REVERT JUMPDEST PUSH0 PUSH8 0xFFFFFFFFFFFFFFFF DUP3 GT ISZERO PUSH2 0x501 JUMPI PUSH2 0x500 PUSH2 0x43C JUMP JUMPDEST JUMPDEST PUSH2 0x50A DUP3 PUSH2 0x3A8 JUMP JUMPDEST SWAP1 POP PUSH1 0x20 DUP2 ADD SWAP1 POP SWAP2 SWAP1 POP JUMP JUMPDEST DUP3 DUP2 DUP4 CALLDATACOPY PUSH0 DUP4 DUP4 ADD MSTORE POP POP POP JUMP JUMPDEST PUSH0 PUSH2 0x537 PUSH2 0x532 DUP5 PUSH2 0x4E7 JUMP JUMPDEST PUSH2 0x49A JUMP JUMPDEST SWAP1 POP DUP3 DUP2 MSTORE PUSH1 0x20 DUP2 ADD DUP5 DUP5 DUP5 ADD GT ISZERO PUSH2 0x553 JUMPI PUSH2 0x552 PUSH2 0x4E3 JUMP JUMPDEST JUMPDEST PUSH2 0x55E DUP5 DUP3 DUP6 PUSH2 0x517 JUMP JUMPDEST POP SWAP4 SWAP3 POP POP POP JUMP JUMPDEST PUSH0 DUP3 PUSH1 0x1F DUP4 ADD SLT PUSH2 0x57A JUMPI PUSH2 0x579 PUSH2 0x438 JUMP JUMPDEST JUMPDEST DUP2 CALLDATALOAD PUSH2 0x58A DUP5 DUP3 PUSH1 0x20 DUP7 ADD PUSH2 0x525 JUMP JUMPDEST SWAP2 POP POP SWAP3 SWAP2 POP POP JUMP JUMPDEST PUSH0 PUSH2 0x5A5 PUSH2 0x5A0 DUP5 PUSH2 0x4B4 JUMP JUMPDEST PUSH2 0x49A JUMP JUMPDEST SWAP1 POP DUP1 DUP4 DUP3 MSTORE PUSH1 0x20 DUP3 ADD SWAP1 POP PUSH1 0x20 DUP5 MUL DUP4 ADD DUP6 DUP2 GT ISZERO PUSH2 0x5C8 JUMPI PUSH2 0x5C7 PUSH2 0x4DF JUMP JUMPDEST JUMPDEST DUP4 JUMPDEST DUP2 DUP2 LT ISZERO PUSH2 0x60F JUMPI DUP1 CALLDATALOAD PUSH8 0xFFFFFFFFFFFFFFFF DUP2 GT ISZERO PUSH2 0x5ED JUMPI PUSH2 0x5EC PUSH2 0x438 JUMP JUMPDEST JUMPDEST DUP1 DUP7 ADD PUSH2 0x5FA DUP10 DUP3 PUSH2 0x566 JUMP JUMPDEST DUP6 MSTORE PUSH1 0x20 DUP6 ADD SWAP5 POP POP POP PUSH1 0x20 DUP2 ADD SWAP1 POP PUSH2 0x5CA JUMP JUMPDEST POP POP POP SWAP4 SWAP3 POP POP POP JUMP JUMPDEST PUSH0 DUP3 PUSH1 0x1F DUP4 ADD SLT PUSH2 0x62D JUMPI PUSH2 0x62C PUSH2 0x438 JUMP JUMPDEST JUMPDEST DUP2 CALLDATALOAD PUSH2 0x63D DUP5 DUP3 PUSH1 0x20 DUP7 ADD PUSH2 0x593 JUMP JUMPDEST SWAP2 POP POP SWAP3 SWAP2 POP POP JUMP JUMPDEST PUSH0 PUSH1 0x20 DUP3 DUP5 SUB SLT ISZERO PUSH2 0x65B JUMPI PUSH2 0x65A PUSH2 0x31A JUMP JUMPDEST JUMPDEST PUSH0 DUP3 ADD CALLDATALOAD PUSH8 0xFFFFFFFFFFFFFFFF DUP2 GT ISZERO PUSH2 0x678 JUMPI PUSH2 0x677 PUSH2 0x31E JUMP JUMPDEST JUMPDEST PUSH2 0x684 DUP5 DUP3 DUP6 ADD PUSH2 0x619 JUMP JUMPDEST SWAP2 POP POP SWAP3 SWAP2 POP POP JUMP JUMPDEST PUSH32 0x4E487B7100000000000000000000000000000000000000000000000000000000 PUSH0 MSTORE PUSH1 0x22 PUSH1 0x4 MSTORE PUSH1 0x24 PUSH0 REVERT JUMPDEST PUSH0 PUSH1 0x2 DUP3 DIV SWAP1 POP PUSH1 0x1 DUP3 AND DUP1 PUSH2 0x6D1 JUMPI PUSH1 0x7F DUP3 AND SWAP2 POP JUMPDEST PUSH1 0x20 DUP3 LT DUP2 SUB PUSH2 0x6E4 JUMPI PUSH2 0x6E3 PUSH2 0x68D JUMP JUMPDEST JUMPDEST POP SWAP2 SWAP1 POP JUMP JUMPDEST PUSH32 0x4E487B7100000000000000000000000000000000000000000000000000000000 PUSH0 MSTORE PUSH1 0x32 PUSH1 0x4 MSTORE PUSH1 0x24 PUSH0 REVERT JUMPDEST PUSH0 DUP2 SWAP1 POP DUP2 PUSH0 MSTORE PUSH1 0x20 PUSH0 KECCAK256 SWAP1 POP SWAP2 SWAP1 POP JUMP JUMPDEST PUSH0 PUSH1 0x20 PUSH1 0x1F DUP4 ADD DIV SWAP1 POP SWAP2 SWAP1 POP JUMP JUMPDEST PUSH0 DUP3 DUP3 SHL SWAP1 POP SWAP3 SWAP2 POP POP JUMP JUMPDEST PUSH0 PUSH1 0x8 DUP4 MUL PUSH2 0x773 PUSH32 0xFFFFFFFFFFFFFFFFFFFFFFFFFFFFFFFFFFFFFFFFFFFFFFFFFFFFFFFFFFFFFFFF DUP3 PUSH2 0x738 JUMP JUMPDEST PUSH2 0x77D DUP7 DUP4 PUSH2 0x738 JUMP JUMPDEST SWAP6 POP DUP1 NOT DUP5 AND SWAP4 POP DUP1 DUP7 AND DUP5 OR SWAP3 POP POP POP SWAP4 SWAP3 POP POP POP JUMP JUMPDEST PUSH0 DUP2 SWAP1 POP SWAP2 SWAP1 POP JUMP JUMPDEST PUSH0 PUSH2 0x7B8 PUSH2 0x7B3 PUSH2 0x7AE DUP5 PUSH2 0x322 JUMP JUMPDEST PUSH2 0x795 JUMP JUMPDEST PUSH2 0x322 JUMP JUMPDEST SWAP1 POP SWAP2 SWAP1 POP JUMP JUMPDEST PUSH0 DUP2 SWAP1 POP SWAP2 SWAP1 POP JUMP JUMPDEST PUSH2 0x7D1 DUP4 PUSH2 0x79E JUMP JUMPDEST PUSH2 0x7E5 PUSH2 0x7DD DUP3 PUSH2 0x7BF JUMP JUMPDEST DUP5 DUP5 SLOAD PUSH2 0x744 JUMP JUMPDEST DUP3 SSTORE POP POP POP POP JUMP JUMPDEST PUSH0 SWAP1 JUMP JUMPDEST PUSH2 0x7F9 PUSH2 0x7ED JUMP JUMPDEST PUSH2 0x804 DUP2 DUP5 DUP5 PUSH2 0x7C8 JUMP JUMPDEST POP POP POP JUMP JUMPDEST JUMPDEST DUP2 DUP2 LT ISZERO PUSH2 0x827 JUMPI PUSH2 0x81C PUSH0 DUP3 PUSH2 0x7F1 JUMP JUMPDEST PUSH1 0x1 DUP2 ADD SWAP1 POP PUSH2 0x80A JUMP JUMPDEST POP POP JUMP JUMPDEST PUSH1 0x1F DUP3 GT ISZERO PUSH2 0x86C JUMPI PUSH2 0x83D DUP2 PUSH2 0x717 JUMP JUMPDEST PUSH2 0x846 DUP5 PUSH2 0x729 JUMP JUMPDEST DUP2 ADD PUSH1 0x20 DUP6 LT ISZERO PUSH2 0x855 JUMPI DUP2 SWAP1 POP JUMPDEST PUSH2 0x869 PUSH2 0x861 DUP6 PUSH2 0x729 JUMP JUMPDEST DUP4 ADD DUP3 PUSH2 0x809 JUMP JUMPDEST POP POP JUMPDEST POP POP POP JUMP JUMPDEST PUSH0 DUP3 DUP3 SHR SWAP1 POP SWAP3 SWAP2 POP POP JUMP JUMPDEST PUSH0 PUSH2 0x88C PUSH0 NOT DUP5 PUSH1 0x8 MUL PUSH2 0x871 JUMP JUMPDEST NOT DUP1 DUP4 AND SWAP2 POP POP SWAP3 SWAP2 POP POP JUMP JUMPDEST PUSH0 PUSH2 0x8A4 DUP4 DUP4 PUSH2 0x87D JUMP JUMPDEST SWAP2 POP DUP3 PUSH1 0x2 MUL DUP3 OR SWAP1 POP SWAP3 SWAP2 POP POP JUMP JUMPDEST PUSH2 0x8BD DUP3 PUSH2 0x380 JUMP JUMPDEST PUSH8 0xFFFFFFFFFFFFFFFF DUP2 GT ISZERO PUSH2 0x8D6 JUMPI PUSH2 0x8D5 PUSH2 0x43C JUMP JUMPDEST JUMPDEST PUSH2 0x8E0 DUP3 SLOAD PUSH2 0x6BA JUMP JUMPDEST PUSH2 0x8EB DUP3 DUP3 DUP6 PUSH2 0x82B JUMP JUMPDEST PUSH0 PUSH1 0x20 SWAP1 POP PUSH1 0x1F DUP4 GT PUSH1 0x1 DUP2 EQ PUSH2 0x91C JUMPI PUSH0 DUP5 ISZERO PUSH2 0x90A JUMPI DUP3 DUP8 ADD MLOAD SWAP1 POP JUMPDEST PUSH2 0x914 DUP6 DUP3 PUSH2 0x899 JUMP JUMPDEST DUP7 SSTORE POP PUSH2 0x97B JUMP JUMPDEST PUSH1 0x1F NOT DUP5 AND PUSH2 0x92A DUP7 PUSH2 0x717 JUMP JUMPDEST PUSH0 JUMPDEST DUP3 DUP2 LT ISZERO PUSH2 0x951 JUMPI DUP5 DUP10 ADD MLOAD DUP3 SSTORE PUSH1 0x1 DUP3 ADD SWAP2 POP PUSH1 0x20 DUP6 ADD SWAP5 POP PUSH1 0x20 DUP2 ADD SWAP1 POP PUSH2 0x92C JUMP JUMPDEST DUP7 DUP4 LT ISZERO PUSH2 0x96E JUMPI DUP5 DUP10 ADD MLOAD PUSH2 0x96A PUSH1 0x1F DUP10 AND DUP3 PUSH2 0x87D JUMP JUMPDEST DUP4 SSTORE POP JUMPDEST PUSH1 0x1 PUSH1 0x2 DUP9 MUL ADD DUP9 SSTORE POP POP POP JUMPDEST POP POP POP POP POP POP JUMP JUMPDEST PUSH32 0x4E487B7100000000000000000000000000000000000000000000000000000000 PUSH0 MSTORE PUSH1 0x11 PUSH1 0x4 MSTORE PUSH1 0x24 PUSH0 REVERT JUMPDEST PUSH0 PUSH2 0x9BA DUP3 PUSH2 0x322 JUMP JUMPDEST SWAP2 POP PUSH32 0xFFFFFFFFFFFFFFFFFFFFFFFFFFFFFFFFFFFFFFFFFFFFFFFFFFFFFFFFFFFFFFFF DUP3 SUB PUSH2 0x9EC JUMPI PUSH2 0x9EB PUSH2 0x983 JUMP JUMPDEST JUMPDEST PUSH1 0x1 DUP3 ADD SWAP1 POP SWAP2 SWAP1 POP JUMP INVALID LOG2 PUSH5 0x6970667358 0x22 SLT KECCAK256 0xB7 0xDD 0xD6 0xC9 0xBE 0xAD MSIZE PUSH9 0x4D4579CE9FA5BCFB3 CREATE MOD 0xD1 JUMPI DUP14 MULMOD SWAP5 COINBASE OR 0xB0 PUSH10 0x1344574664736F6C6343 STOP ADDMOD BYTE STOP CALLER "
		},
		"gasEstimates": {
			"creation": {
				"codeDepositCost": "521000",
				"executionCost": "5559",
				"totalCost": "526559"
			},
			"external": {
				"addStudents(uint256)": "infinite",
				"changeNames(string[])": "infinite",
				"coin()": "2425",
				"letsBreak(uint256)": "infinite",
				"something()": "infinite",
				"students(uint256)": "infinite"
			}
		},
		"methodIdentifiers": {
			"addStudents(uint256)": "c9877203",
			"changeNames(string[])": "59f6d8a3",
			"coin()": "11df9995",
			"letsBreak(uint256)": "e308ae72",
			"something()": "a7a0d537",
			"students(uint256)": "06ead22e"
		}
	},
	"abi": [
		{
			"inputs": [
				{
					"internalType": "uint256",
					"name": "_num",
					"type": "uint256"
				}
			],
			"name": "addStudents",
			"outputs": [],
			"stateMutability": "nonpayable",
			"type": "function"
		},
		{
			"inputs": [
				{
					"internalType": "string[]",
					"name": "names",
					"type": "string[]"
				}
			],
			"name": "changeNames",
			"outputs": [],
			"stateMutability": "nonpayable",
			"type": "function"
		},
		{
			"inputs": [],
			"name": "coin",
			"outputs": [
				{
					"internalType": "uint256",
					"name": "",
					"type": "uint256"
				}
			],
			"stateMutability": "view",
			"type": "function"
		},
		{
			"inputs": [
				{
					"internalType": "uint256",
					"name": "_num",
					"type": "uint256"
				}
			],
			"name": "letsBreak",
			"outputs": [],
			"stateMutability": "nonpayable",
			"type": "function"
		},
		{
			"inputs": [],
			"name": "something",
			"outputs": [],
			"stateMutability": "nonpayable",
			"type": "function"
		},
		{
			"inputs": [
				{
					"internalType": "uint256",
					"name": "",
					"type": "uint256"
				}
			],
			"name": "students",
			"outputs": [
				{
					"internalType": "string",
					"name": "",
					"type": "string"
				}
			],
			"stateMutability": "view",
			"type": "function"
		}
	]
}